:020000040800F2
:1000000000000220393D0008B1390008B33900086A
:10001000B5390008B7390008B939000800000000F8
:10002000000000000000000000000000BB390008D4
:10003000BD39000800000000BF390008C1390008C0
:10004000893D0008893D0008893D0008893D000878
:10005000893D0008893D0008893D0008893D000868
:10006000893D0008893D0008893D0008893D000858
:10007000893D0008893D0008893D0008893D000848
:10008000893D0008893D0008893D00080000000006
:10009000000000000000000000000000893D000892
:1000A000C9390008D9390008E9390008F9390008C8
:1000B000893D0008893D0008893D0008893D000808
:1000C000893D0008893D0008893D0008893D0008F8
:1000D000893D0008893D0008893D000800000000B6
:1000E000893D0008893D0008893D000800000000A6
:1000F000000000000000000000000000893D000832
:1001000000000000893D0008893D0008893D000885
:1001100000000000000000000000000000000000DF
:10012000893D0008893D0008893D0008893D000897
:10013000893D0008000000000000000000000000F1
:10014000000000000000000000000000893D0008E1
:10015000893D0008893D0008893D0008893D000867
:10016000893D0008893D00080000000000000000F3
:10017000000000000000000000000000000000007F
:1001800000000000893D00080000000000000000A1
:08019000893D0008893D0008CB
:1001A00001F0FF01102A2BDB10F0070F08D010F828
:1001B000013B013A8B422DD010F0070F42B3F6D12C
:1001C000F0B441EA012141EA014122F007047FF045
:1001D00000070023F0E80256083C85EA010586EA9C
:1001E000010685FA47F5A3FA87F586FA47F6A5FAD8
:1001F00087F68EB9EED1F0BC01F0FF0102F00702E4
:1002000032B110F8013B013A83EA010313B1F8D18E
:100210000020704701387047002D06BF354603386F
:10022000073815F0010F07D1013015F4807F02BFA8
:10023000013015F4C03F0130F0BC0138704700BFF9
:10024000034613F8012B002AFBD1181A0138704716
:1002500081F0004102E000BF83F0004330B54FEA77
:1002600041044FEA430594EA050F08BF90EA020FE4
:100270001FBF54EA000C55EA020C7FEA645C7FEA77
:10028000655C00F0E2804FEA5454D4EB5555B8BF9A
:100290006D420CDD2C4480EA020281EA030382EA0B
:1002A000000083EA010180EA020281EA0303362D9D
:1002B00088BF30BD11F0004F4FEA01314FF4801C70
:1002C0004CEA113102D0404261EB410113F0004F82
:1002D0004FEA03334CEA133302D0524263EB430339
:1002E00094EA050F00F0A780A4F10104D5F1200ED7
:1002F0000DDB02FA0EFC22FA05F2801841F1000132
:1003000003FA0EF2801843FA05F359410EE0A5F105
:1003100020050EF1200E012A03FA0EFC28BF4CF036
:10032000020C43FA05F3C01851EBE37101F00045EC
:1003300007D54FF0000EDCF1000C7EEB00006EEBF9
:100340000101B1F5801F1BD3B1F5001F0CD3490883
:100350005FEA30004FEA3C0C04F101044FEA4452DA
:1003600012F5800F80F09A80BCF1004F08BF5FEA61
:10037000500C50F1000041EB045141EA050130BD41
:100380005FEA4C0C404141EB0101013C28BFB1F553
:10039000801FE9D291F0000F04BF01460020B1FA9E
:1003A00081F308BF2033A3F10B03B3F120020CDA71
:1003B0000C3208DD02F1140CC2F10C0201FA0CF04F
:1003C00021FA02F10CE002F11402D8BFC2F1200CB4
:1003D00001FA02F120FA0CFCDCBF41EA0C0190406A
:1003E000E41AA2BF01EB0451294330BD6FEA0404B3
:1003F0001F3C1CDA0C340EDC04F11404C4F120029E
:1004000020FA04F001FA02F340EA030021FA04F3AF
:1004100045EA030130BDC4F10C04C4F1200220FA06
:1004200002F001FA04F340EA0300294630BD21FA44
:1004300004F0294630BD94F0000F83F4801306BF0A
:1004400081F480110134013D4EE77FEA645C18BFFE
:100450007FEA655C29D094EA050F08BF90EA020F95
:1004600005D054EA000C04BF1946104630BD91EA8D
:10047000030F1EBF0021002030BD5FEA545C05D190
:100480004000494128BF41F0004130BD14F58004CF
:100490003CBF01F5801130BD01F0004545F0FE4143
:1004A00041F470014FF0000030BD7FEA645C1ABF78
:1004B000194610467FEA655C1CBF0B46024650EAAF
:1004C000013406BF52EA033591EA030F41F40021DB
:1004D00030BD00BF90F0000F04BF0021704730B561
:1004E0004FF4806404F132044FF000054FF0000136
:1004F00050E700BF90F0000F04BF0021704730B5F7
:100500004FF4806404F1320410F0004548BF4042CB
:100510004FF000013EE700BF42004FEAE2014FEA20
:1005200031014FEA02701FBF12F07F4393F07F4FFB
:1005300081F06051704732F07F4208BF704793F0FE
:100540007F4F04BF41F40021704730B54FF4607411
:1005500001F0004521F000411CE700BF50EA010214
:1005600008BF704730B54FF000050AE050EA0102BD
:1005700008BF704730B511F0004502D5404261EB2D
:1005800041014FF4806404F132045FEA915C3FF46E
:10059000D8AE4FF003025FEADC0C18BF03325FEA0B
:1005A000DC0C18BF033202EBDC02C2F1200300FABC
:1005B00003FC20FA02F001FA03FE40EA0E0021FAE1
:1005C00002F11444BDE600BF70B54FF0FF0C4CF4CF
:1005D000E06C1CEA11541DBF1CEA135594EA0C0F81
:1005E00095EA0C0F00F0DEF82C4481EA030621EABC
:1005F0004C5123EA4C5350EA013518BF52EA0335F7
:1006000041F4801143F4801338D0A0FB02CE4FF0A8
:100610000005E1FB02E506F00042E0FB03E54FF0D8
:100620000006E1FB03569CF0000F18BF4EF0010ED0
:10063000A4F1FF04B6F5007F64F5407404D25FEACC
:100640004E0E6D4146EB060642EAC62141EA55517F
:100650004FEAC52040EA5E504FEACE2EB4F1FD0CC1
:1006600088BFBCF5E06F1ED8BEF1004F08BF5FEA3F
:10067000500E50F1000041EB045170BD06F00046F1
:1006800046EA010140EA020081EA0301B4EB5C049E
:10069000C2BFD4EB0C0541EA045170BD41F4801196
:1006A0004FF0000E013C00F3AB8014F1360FDEBFBB
:1006B000002001F0004170BDC4F10004203C35DA97
:1006C0000C341BDC04F11404C4F1200500FA05F31A
:1006D00020FA04F001FA05F240EA020001F00042BB
:1006E00021F0004110EBD37021FA04F642EB060131
:1006F0005EEA430E08BF20EAD37070BDC4F10C045B
:10070000C4F1200500FA04F320FA05F001FA04F21E
:1007100040EA020001F0004110EBD37041F100010A
:100720005EEA430E08BF20EAD37070BDC4F1200515
:1007300000FA05F24EEA020E20FA04F301FA05F27D
:1007400043EA020321FA04F001F0004121FA04F225
:1007500020EA020000EBD3705EEA430E08BF20EAF5
:10076000D37070BD94F0000F0FD101F0004640002F
:1007700041EB010111F4801F08BF013CF7D041EAB1
:10078000060195F0000F18BF704703F000465200B5
:1007900043EB030313F4801F08BF013DF7D043EA86
:1007A0000603704794EA0C0F0CEA135518BF95EA3C
:1007B0000C0F0CD050EA410618BF52EA4306D1D1C3
:1007C00081EA030101F000414FF0000070BD50EAE2
:1007D000410606BF1046194652EA430619D094EA6C
:1007E0000C0F02D150EA013613D195EA0C0F05D156
:1007F00052EA03361CBF104619460AD181EA0301AA
:1008000001F0004141F0FE4141F470014FF0000061
:1008100070BD41F0FE4141F4780170BD70B54FF0FC
:10082000FF0C4CF4E06C1CEA11541DBF1CEA13557C
:1008300094EA0C0F95EA0C0F00F0A7F8A4EB05045E
:1008400081EA030E52EA03354FEA013100F0888055
:100850004FEA03334FF0805545EA131343EA12631E
:100860004FEA022245EA111545EA10654FEA0026D3
:100870000EF000419D4208BF964244F1FD0404F58C
:10088000407402D25B084FEA3202B61A65EB0305E8
:100890005B084FEA32024FF480104FF4002CB6EBA5
:1008A000020E75EB030E22BFB61A754640EA0C0025
:1008B0005B084FEA3202B6EB020E75EB030E22BF65
:1008C000B61A754640EA5C005B084FEA3202B6EBA6
:1008D000020E75EB030E22BFB61A754640EA9C0065
:1008E0005B084FEA3202B6EB020E75EB030E22BF35
:1008F000B61A754640EADC0055EA060E18D04FEAF3
:10090000051545EA16754FEA06164FEAC30343EA92
:1009100052734FEAC2025FEA1C1CC0D111F4801F5F
:100920000BD141EA00014FF000004FF0004CB6E758
:1009300011F4801F04BF01430020B4F1FD0C88BFF7
:10094000BCF5E06F3FF6AFAEB5EB030C04BFB6EB02
:10095000020C5FEA500C50F1000041EB045170BDF5
:100960000EF0004E4EEA113114EB5C04C2BFD4EB22
:100970000C0541EA045170BD41F480114FF0000EA6
:10098000013C90E645EA060E8DE60CEA135594EA22
:100990000C0F08BF95EA0C0F3FF43BAF94EA0C0F25
:1009A0000AD150EA01347FF434AF95EA0C0F7FF49A
:1009B00025AF104619462CE795EA0C0F06D152EAEE
:1009C00003353FF4FDAE1046194622E750EA4106D2
:1009D00018BF52EA43067FF4C5AE50EA41047FF4E3
:1009E0000DAF52EA43057FF4EBAE12E74FF0FF3C48
:1009F00006E000BF4FF0010C02E000BF4FF0010C19
:100A00004DF804CD4FEA410C7FEA6C5C4FEA430C91
:100A100018BF7FEA6C5C1BD001B050EA410C0CBFE0
:100A200052EA430C91EA030F02BF90EA020F002042
:100A3000704710F1000F91EA030F58BF994208BFA9
:100A400090422CBFD8176FEAE37040F00100704766
:100A50004FEA410C7FEA6C5C02D150EA013C07D1BD
:100A60004FEA430C7FEA6C5CD6D152EA033CD3D008
:100A70005DF8040B704700BF8446104662468C4602
:100A80001946634600E000BF01B5FFF7B7FF002835
:100A900048BF10F1000F01BD4DF808EDFFF7F4FF5E
:100AA0000CBF012000205DF808FB00BF4DF808EDE9
:100AB000FFF7EAFF34BF012000205DF808FB00BF0C
:100AC0004DF808EDFFF7E0FF94BF012000205DF82E
:100AD00008FB00BF4DF808EDFFF7CEFF94BF0120E3
:100AE00000205DF808FB00BF4DF808EDFFF7C4FFDC
:100AF00034BF012000205DF808FB00BF4FEA410C25
:100B00007FEA6C5C02D150EA013C0AD14FEA430C07
:100B10007FEA6C5C02D152EA033C02D14FF0000044
:100B200070474FF0010070474FEA410212F5001282
:100B300015D211D56FF47873B3EB625212D94FEA24
:100B4000C12343F0004343EA505311F0004F23FA0E
:100B500002F018BF404270474FF00000704750EA63
:100B6000013005D111F0004008BF6FF00040704720
:100B70004FF00000704700BF7BB972B90029BEBFBB
:100B800000204FF0004106E008BF00281CBF6FF0B6
:100B900000414FF0FF3000F057B8ADF1080C6DE99F
:100BA00004CE002909DB002B1ADB05F06BFFDDF812
:100BB00004E0DDE9022304B07047404261EB4101EB
:100BC000002B1BDB05F05EFFDDF804E0DDE902230E
:100BD00004B0404261EB4101524263EB4303704772
:100BE000524263EB430305F04DFFDDF804E0DDE91D
:100BF000022304B0404261EB41017047524263EB73
:100C0000430305F03FFFDDF804E0DDE9022304B013
:100C1000524263EB4303704753B94AB9002908BFF6
:100C200000281CBF4FF0FF314FF0FF3000F00CB830
:100C3000ADF1080C6DE904CE05F024FFDDF804E009
:100C4000DDE9022304B07047704700BF10B5054CC2
:100C5000237833B9044B13B10448AFF30080012368
:100C6000237010BDD401002000000000406D00087A
:100C700008B5034B1BB103490348AFF3008008BD1F
:100C800000000000D8010020406D000882B0002163
:100C900000910B4B1A6B42F001021A631A6B02F0BF
:100CA00001020092009A01911A6B42F002021A634B
:100CB0001B6B03F002030193019B02B0704700BF5E
:100CC0000038024008B50B480B4B03600B4B4360E8
:100CD00000238360C3604FF48042026143618361FB
:100CE000C361036201F068FA00B908BD00F028FC96
:100CF000FBE700BFF001002000540040A086010087
:100D000030B589B0002303930493059306930793AA
:100D10000268144B9A4201D009B030BD00250195FC
:100D2000114C236B43F002032363236B03F0020394
:100D30000193019BC023039312230493032306937F
:100D40000423079303A9094800F0C8FE0295236C09
:100D500043F400132364236C03F400130293029BF7
:100D6000DAE700BF005400400038024000040240AF
:100D70000E4B1B885A00C2EBE0020D49B1F900107E
:100D800001FB02F2C3EB201000FB00F00013094B43
:100D9000B3F9003003FB00F0801300EBE220064BB8
:100DA000186000EB8000803000127047660200205F
:100DB000640200206202002044020020F8B5664B65
:100DC0001968CB17B1F5FA3143F1FF3301FB03F496
:100DD000A1FB012606EB4406604CB4F90050EC1769
:100DE00002FB04F405FB0644A2FB05752C445C4D94
:100DF000B5F900C04FEAEC750CFB03FE01FB05EEF4
:100E0000ACFB01C5AE444FEA4E4E4EEADC3E4FEA23
:100E10004C4C1CEB070C44EB0E04524DB5F9005042
:100E200004EBC504504DB5F900E04FEAEE7502FB46
:100E300005F50EFB0655A2FB0E2E7544120A42EA7A
:100E400005624A4EB6F900E04FEAEE760EFB03F378
:100E500001FB0633AEFB01E10B441B0343EA1E53C7
:100E60004FEA0E3E12EB0E0243EB252303F500433F
:100E70003F490D88A2FB052105FB03114A10CB1742
:100E800053EA610165D0C0F5801E4FEA6E014FEA5A
:100E9000CE7EBEEB0C0E61EB04041EEB0E0C44EB9D
:100EA00004011CEB0E0C44EB0101880140EA9C603C
:100EB0004FEA8C151CEB050C41EB0001890041EA5F
:100EC0009C714FEA8C0C1CEB0E0C44EB0101890069
:100ED00041EA9C714FEA8C0010EB0E0044EB0101DB
:100EE000FFF74AFE0346234AB2F90050EF17420BC0
:100EF00042EAC1424E1305FB06F402FB0744A5FB80
:100F000002573C4402FB04F405FB0644A2FB052502
:100F10002C44520E42EAC412174DB5F90050EF1797
:100F200005FB01F607FB0060A5FB03563044ED0C02
:100F300045EA40359B1841EB64615B1941EBE041A8
:100F4000180A40EA01600D4BB3F9003000EB0310C2
:100F5000F8BD0020FCE700BF44020020560200203C
:100F6000580200205A0200205C0200205E0200208D
:100F70006002002050020020520200205402002093
:100F800030B58DB0FF230293012301930BAA009289
:100F9000D022EC211A4801F09DFA9DF82C30582BF4
:100FA0001AD00DF1100C174C0FCCACE80F002368D1
:100FB0008CF800300023ADF821308DF8233004ACDC
:100FC0002046FFF73DF94FF47A7382B221460E486E
:100FD00002F089FC0DB030BD04AC0C4D0FCD0FC438
:100FE00095E8070084E8070004AC2046FFF728F9DD
:100FF0004FF47A7382B22146034802F074FCE9E7A9
:10100000F0010020586D0008B80200202C6E000886
:1010100030B59BB0032803D8DFE800F02E042A2C5B
:10102000002500E0154D01AC204603F035FC2046BC
:10103000FFF706F92218124B19889B7821529370FA
:101040002946204603F028FC2046FFF7F9F822182D
:101050000C4B998A9B7D215293702046FFF7F0F844
:10106000FF2382B22146084802F03DFC1BB030BD90
:10107000064DD8E7064DD6E7064DD4E7546E000876
:101080006C6E0008586D0008B80200205C6E000805
:10109000646E00084C6E000870B584B0504CFF269A
:1010A0000296022501954F4B009301238822EC21E3
:1010B000204601F00FFA4C49FFF7AAFF029601956E
:1010C0004A4B009301238A22EC21204601F002FAC8
:1010D0004749FFF79DFF02960195464B0093012378
:1010E0008C22EC21204601F0F5F94349FFF790FFEF
:1010F00002960195414B009301238E22EC2120465C
:1011000001F0E8F93E49FFF783FF029601953D4B58
:10111000009301239022EC21204601F0DBF93A49AB
:10112000FFF776FF02960195384B00930123922238
:10113000EC21204601F0CEF93549FFF769FF029610
:101140000195344B009301239422EC21204601F0B9
:10115000C1F93149FFF75CFF029601952F4B0093CF
:1011600001239622EC21204601F0B4F92C49FFF727
:101170004FFF029601952B4B009301239822EC21FF
:10118000204601F0A7F92849FFF742FF0296019592
:10119000264B009301239A22EC21204601F09AF974
:1011A0002349FFF735FF02960195224B0093012357
:1011B0009C22EC21204601F08DF91F49FFF728FF02
:1011C000029601951D4B009301239E22EC2120469F
:1011D00001F080F91A49FFF71BFF04B070BD00BF92
:1011E000F001002066020020706E000864020020FA
:1011F000786E000862020020806E00086002002005
:10120000886E00085E020020906E00085C020020DC
:10121000986E00085A020020A06E000858020020B4
:10122000A86E000856020020B06E0008540200208C
:10123000B86E000852020020C06E00085002002064
:10124000C86E000830B5B9B04D4C0DF17C0E04F1FC
:101250003005F44620686168A268E368ACE80F00D6
:101260001034E646AC42F4D120686168A268AEE86A
:101270000700A389AEF80030262200210DF1BA0044
:1012800003F002FB1FAC2046FEF7DAFF4FF47A733F
:1012900082B221463B4802F026FBFF230293012342
:1012A00001930DF17B0200920F22D421364801F008
:1012B00011F93649FFF7ACFE9DF87B30692B24D03D
:1012C00005AC334D0FCD0FC495E8070003C424F8D7
:1012D000022B120C22700023CDF82F30CDF83330C2
:1012E000CDF83730CDF83B30CDF83F30CDF8423037
:1012F00005AC2046FEF7A4FF4FF47A7382B2214674
:10130000204802F0F0FA39B030BD224C0DF1140C37
:1013100004F1200E654620686168A268E3680FC585
:101320001034AC467445F5D120686168ACE8030020
:10133000237A8CF800303B2200210DF13D0003F0B0
:10134000A3FA05AC2046FEF77BFF4FF47A7382B216
:1013500021460C4802F0C7FA44238DF81330FF23CE
:101360000293012301930DF1130200921022D42164
:10137000054800F0FFFF0849FFF74AFEC3E700BF3A
:10138000E86E0008B8020020F0010020D06E0008CE
:10139000706D0008286F0008DC6E00080000000077
:1013A0002DE9F04F89B080465D4EFF27029701245A
:1013B00001940DF11C0BCDF800B023462822D42156
:1013C000304601F087F85749FFF722FE0297019453
:1013D0000DF11D0ACDF800A023462922D421304664
:1013E00001F078F85049FFF713FEBDF81E502D02AA
:1013F0002DB2BDF91C301D434FF00009ADF81E9011
:10140000ADF81C9002970194CDF800B023462A2233
:10141000D421304601F05EF84449FFF7F9FD029708
:101420000194CDF800A023462B22D421304601F0B0
:1014300051F83F49FFF7ECFDBDF81E301B021BB20F
:10144000BDF91C2013430593ADF81E90ADF81C9018
:1014500002970194CDF800B023462C22D4213046C7
:1014600001F038F83349FFF7D3FD02970194CDF826
:1014700000A023462D22D421304601F02BF82E491E
:10148000FFF7C6FDBDF81E40240224B2BDF91C3092
:101490001C432846FFF72EF81DA3D3E90023FFF7CE
:1014A00093F80022254BFFF7B9F91BA3D3E90023DA
:1014B000FFF78AF8C8E900010598FFF71BF814A3A5
:1014C000D3E90023FFF780F800221C4BFFF7A6F9B1
:1014D00011A3D3E90023FFF777F8C8E902012046FA
:1014E000FFF708F80AA3D3E90023FFF76DF80022FD
:1014F000124BFFF793F908A3D3E90023FFF764F831
:10150000C8E9040109B0BDE8F08F00BFAFF3008067
:1015100008AC1C5A643BDF3F1F85EB51B89E23404B
:10152000F0010020546F0008606F00086C6F000825
:10153000786F0008846F0008906F000800408F40AB
:1015400072B6FEE710B594B008AC302200212046F8
:1015500003F09AF9002303930493059306930793EA
:1015600001931E4A116C41F080511164126C02F01B
:1015700080520192019A0293194A116841F4404144
:101580001160126802F440420292029A022208920A
:1015900001210B9110210C910E920F9308231093AF
:1015A00064231193129204231393204601F02AF925
:1015B00080B90F23039302230493002305934FF470
:1015C000805206920793032103A801F06BFB18B920
:1015D00014B010BDFFF7B4FFFFF7B2FF00380240B0
:1015E000007000402DE9F043ADF5257DB84D8BAC82
:1015F000E86C296D6A6DAB6D0FC4E86D296E03C48C
:101600004C220021204603F03FF98BAC2046FEF728
:1016100017FE4FF47A7382B22146AE4802F063F9A6
:1016200000F0A0F9FFF78EFFFFF730FBFFF74AFB52
:1016300002F02EFB02F0B6FA0021A74801F04EFF9F
:10164000FFF700FEFFF79CFCFFF726FD49238DF80E
:101650002B32FF230293012301930DF22B220092E0
:10166000F422EC219D4800F085FE9D49FFF7D0FC57
:101670004FF47A7000F0A2F90DAE954C04F1640CB1
:1016800035469434AE46DCF80000DCF80410DCF893
:101690000820DCF80C30AEE80F000CF1100C754699
:1016A000A445EFD1DCF80000CEF800009CF804302F
:1016B0008EF804302F22002106F1350003F0E4F803
:1016C0000DAC2046FEF7BCFDDFF808824FF47A73BC
:1016D00082B22146404602F006F904AD4FF00009FF
:1016E0008DF812908DF811908DF810907B4EFF2799
:1016F00002970124019400952346FA22EC213046FA
:1017000000F0E8FE7749FFF783FC029701940DF1A2
:10171000110300932346FB22EC21304600F0DAFE51
:101720007149FFF775FC029701940DF112030093C4
:101730002346FC22EC21304600F0CCFE6B49FFF73B
:1017400067FC9DF810209DF811301B0143EA02331D
:101750009DF81200664DC5F8009043EA1010FFF79F
:1017600007FB286007EE900AF8EEE77A9FED617AB2
:10177000C7EE877A17EE900AFEF7CEFE02460B46BA
:1017800026AD5D49284603F019F82846FEF758FDB6
:101790004FF47A7382B22946404602F0A4F80297C9
:1017A000019405AD00952346F722EC21304600F068
:1017B00091FE5249FFF72CFC029701940DF115039D
:1017C00000932346F822EC21304600F083FE4C497A
:1017D000FFF71EFC029701940DF1160300932346B8
:1017E000F922EC21304600F075FE4649FFF710FC67
:1017F0009DF814209DF815301B0143EA02339DF833
:10180000160043EA1010FFF7D9FA3F4B186007EEB5
:10181000900AF8EE677A9FED3D7A67EE877A17EEC9
:10182000900AFEF779FE02460B463FAC3849204647
:1018300002F0C4FF2046FEF703FD4FF47A7382B234
:101840002146404602F04FF80DF5B07C204E06F1DF
:101850009C046746CC363D4620686168A268E36810
:101860000FC510342F46B442F5D120682860237983
:101870002B712F2200210CF1350003F005F80DA883
:10188000FEF7DEFC134E4FF47A7382B258A930464D
:1018900002F029F806AC2046FFF782FD71ADDDE9C4
:1018A0000A23CDE90223DDE90823CDE90023DDE9A0
:1018B00006231849284602F081FF2846FEF7C0FC9F
:1018C0004FF47A7382B22946304602F00CF8CFE624
:1018D000586D0008B802002070020020F0010020BE
:1018E000DC6E00089C6F0008A86F0008B46F000849
:1018F0004C0200200000C842C06F0008E06F0008E2
:10190000EC6F0008F86F0008480200200000803BE0
:10191000047000081C70000810B504460E4B1A78BD
:101920004FF47A73B3FBF2F30C4A1068B0FBF3F098
:1019300000F0C0F868B90F2C01D901200AE000229C
:1019400021464FF0FF3000F0A1F8054B1C6000204D
:1019500000E0012010BD00BF0000002008000020B2
:101960000400002008B50B4B1A6842F400721A609C
:101970001A6842F480621A601A6842F480721A602F
:10198000032000F071F80F20FFF7C6FF00F01EFFE4
:10199000002008BD003C0240034A1168034B1B783D
:1019A0000B441360704700BF680200200000002055
:1019B000014B1868704700BF6802002038B5044624
:1019C000FFF7F6FF0546B4F1FF3F02D0044B1B784A
:1019D0001C44FFF7EDFF401BA042FAD338BD00BF07
:1019E00000000020002807DB00F01F02400901234F
:1019F0009340024A42F82030704700BF00E100E007
:101A0000002808DB0901C9B200F1604000F561401F
:101A100080F80013704700F00F000901C9B2014BB4
:101A20001954704714ED00E000B500F00700C0F154
:101A3000070CBCF1040F28BF4FF0040C031D062B4C
:101A40000FD9C31E4FF0FF3E0EFA0CF021EA000141
:101A500099400EFA03FE22EA0E0241EA02005DF806
:101A600004FB0023EEE70000074AD36823F4E06399
:101A70001B041B0C000200F4E060034343F0BF634F
:101A800043F40033D360704700ED00E010B5044626
:101A9000054BD868C0F30220FFF7C6FF0146204679
:101AA000FFF7AEFF10BD00BF00ED00E008B5FFF787
:101AB00099FF08BD0138B0F1807F0BD24FF0E023D1
:101AC0005861054AF02182F823100020986107220E
:101AD0001A6170470120704700ED00E000230F2BD2
:101AE00000F2D78070B582B065E085684FEA430E9A
:101AF000032404FA0EF425EA0405CC6804FA0EF473
:101B00002C438460446824EA02044A68C2F3001249
:101B10009A40224342605CE0DC08083450F82420FC
:101B200003F00705AD004FF00F0E0EFA05FE22EA96
:101B30000E0E0A69AA4042EA0E0240F824205CE038
:101B4000042200E0002202FA0EF22A430234514D30
:101B500045F82420504A94686FEA0C0224EA0C05E8
:101B60004E6816F4801F01D04CEA04054A4CA5606B
:101B7000E46802EA04054E6816F4001F01D04CEA3E
:101B80000405454CE560646802EA04054E6816F4F5
:101B9000003F01D04CEA04053F4C656024682240B8
:101BA0004D6815F4803F01D04CEA04023A4C2260A3
:101BB00001330F2B6BD801229A400C6804EA020C07
:101BC00032EA0404F4D14C6804F00304013C012C13
:101BD0008BD94A6802F00302032A09D0C4685D0069
:101BE0000322AA4024EA02048A68AA402243C2606F
:101BF0004A6802F00302022A8ED004684FEA430EBC
:101C0000032202FA0EF224EA02044A6802F00302F6
:101C100002FA0EF2224302604A6812F4403FC7D033
:101C2000002201921D4A546C44F480445464526C66
:101C300002F480420192019A9C08A51C154A52F8B0
:101C4000255003F0030E4FEA8E0E0F2202FA0EF219
:101C500025EA0205124A90423FF474AF02F5806211
:101C600090420ED002F5806290420CD002F5806264
:101C700090420AD002F5806290423FF461AF0722A1
:101C800061E701225FE702225DE703225BE702B022
:101C900070BD704700380140003C014000380240F0
:101CA0000000024003685A6912F4806F01D10020DD
:101CB00070476FF480625A6100230363202280F82A
:101CC0003D2080F83E30026C42F00402026480F84D
:101CD0003C30012070472DE9F04106460C4617467E
:101CE00098463BE0FFF764FE069BC01A404502D8C9
:101CF000B8F1000F32D1012D18D033689B6924EA66
:101D000003039BB2B3FA83F35B099F4226D10023FE
:101D10003363202286F83D2086F83E30326C42F054
:101D20002002326486F83C30012027E033685B698A
:101D300024EA03039BB2B3FA83F35B09E5E7336854
:101D40005B6924EA030C1FFA8CFCBCFA8CFC4FEA9A
:101D50005C1C674511D1B8F1FF3FC3D1C4F30745FF
:101D6000012DECD033689B6924EA030C1FFA8CFC2C
:101D7000BCFA8CFC4FEA5C1CEBE70020BDE8F0816C
:101D80002DE9F84305460E469046994653E01A68F9
:101D900042F400721A602B686FF480625A6100236B
:101DA0002B63202285F83D2085F83E302A6C42F0D6
:101DB00004022A6485F83C3001204AE0FFF7F8FD70
:101DC000A0EB0900404502D8B8F1000F33D1012F34
:101DD00017D02B689B6926EA03039BB2003B18BF10
:101DE000012343B300232B63202285F83D2085F88F
:101DF0003E302A6C42F020022A6485F83C300120F3
:101E000027E02B685B6926EA03039BB2003B18BFFF
:101E10000123E6E72B689C6926EA0404A4B2003C8F
:101E200018BF0124A4B12B685A6912F4806FAED197
:101E3000B8F1FF3FC2D1C6F30747012FEAD12B68A3
:101E40005C6926EA0404A4B2003C18BF0124E9E757
:101E50000020BDE8F88370B504460D461646236899
:101E60005B6913F0800F21D12046FFF71BFFF8B903
:101E7000B5F1FF3FF3D0FFF79BFD801BA84201D8CF
:101E8000002DECD123685B6913F0800FE7D10023AC
:101E90002363202284F83D2084F83E30226C42F0F7
:101EA0002002226484F83C30012000E0002070BD54
:101EB0000120FCE72DE9F04385B004460D4691462C
:101EC0001F46DDF830800D9E0368196841F480716B
:101ED00019600096434600224FF00111FFF7FBFE08
:101EE00060B9236805F0FE051D6133464246264968
:101EF0002046FFF745FF68B1012008E023681B6812
:101F000013F4807F02D04FF400732364032005B0E4
:101F1000BDE8F0830023039323685A6903929B6909
:101F20000393039B324641462046FFF794FF30B9A6
:101F3000012F0FD123685FFA89F61E61E7E7236C52
:101F4000042B01D00120E2E72268136843F40073F8
:101F50001360F7E723684FEA19221A6132464146B7
:101F60002046FFF778FF20B923685FFA89F61E61E3
:101F7000CDE7236C042B01D00120C8E72268136849
:101F800043F400731360F7E7020001002DE9F04706
:101F900084B004460D46164699460C9FDDF8348001
:101FA0000268136843F4806313600368196841F49E
:101FB00080711960CDF800803B4600224FF001117E
:101FC000FFF789FE70B95FFA85FA236805F0FE0510
:101FD0001D6143463A4641492046FFF7D1FE68B1AC
:101FE000012008E023681B6813F4807F02D04FF4BF
:101FF00000732364032004B0BDE8F087002303933B
:1020000023685A6903929B690393039B42463946AE
:102010002046FFF720FF80B9B9F1010F18D12368DE
:10202000F6B21E61424639462046FFF714FF68B3F8
:10203000236C042B24D00120DDE7236C042B01D07A
:102040000120D8E72268136843F400731360F7E7B0
:102050002368320A1A61424639462046FFF7FBFEE2
:1020600018B92368F6B21E61DCE7236C042B01D09B
:102070000120C0E72268136843F400731360F7E798
:102080002268136843F400731360D4E7226813686E
:1020900043F480731360CDF800803B4600224FF07C
:1020A00001112046FFF717FE68B922684AF00103C4
:1020B000136143463A4609492046FFF761FE00286E
:1020C00099D0012097E723681B6813F4807F02D022
:1020D0004FF40073236403208DE700BF020001006A
:1020E00070B504460D46164623685B6913F0040F6D
:1020F00021D12046FFF7D6FDF8B9B5F1FF3FF3D067
:10210000FFF756FC801BA84201D8002DECD12368B4
:102110005B6913F0040FE7D100232363202284F8C6
:102120003D2084F83E30226C42F02002226484F884
:102130003C30012000E0002070BD0120FCE770B5BC
:1021400004460D46164614E06FF010025A61002353
:102150002363202284F83D2084F83E30226C2264E0
:1021600084F83C30012025E023685B6913F0400FC0
:1021700010D02368586910F0400F1AD1586910F038
:10218000100FE1D1FFF714FC801BA842ECD8002D02
:10219000EFD1E9E700232363202284F83D2084F86F
:1021A0003E30226C42F02002226484F83C30012050
:1021B00000E0002070BD0000002800F0CC8070B569
:1021C000044690F83D30002B77D0242384F83D302E
:1021D0002268136823F0010313602268136843F434
:1021E000004313602268136823F40043136000F077
:1021F0000FFE62685A4B9A4264D85A4B98428CBF81
:1022000000230123002B40F0A8805749A1FB003197
:102210008B0C25686A6822F03F0242EA91426A60AC
:1022200021680A6A22F03F0266684D4DAE424FD8DF
:10223000013313430B622168CA6922F44F4222F032
:10224000FF026568464B9D424CD8431E6D00B3FBB0
:10225000F5F3013340F6FC70034278D0C3F30B036F
:102260001A43CA6121680B6823F0C003E269206A3F
:10227000024313430B6021688B6823F4034323F06C
:10228000FF032269E068024313438B602168CB6837
:1022900023F0FF036269A06902431343CB60226805
:1022A000136843F00103136000202064202384F8A6
:1022B0003D30206384F83E0070BD80F83C30FEF76E
:1022C0001FFD82E7294B98428CBF0023012399E729
:1022D0004FF4967505FB03F3254DA5FB03539B09AE
:1022E0000133A6E7A668BEB9431E05EB450CB3FB58
:1022F000FCF30133C3F30B03B3FA83F35B0943BB72
:10230000C6B9431E05EB4505B3FBF5F30133C3F333
:102310000B0343F40043A3E7431E05EB850C0CEBD2
:102320008C0CB3FBFCF30133C3F30B03B3FA83F35D
:102330005B09E4E7431E05EB850505EB8505B3FB6B
:10234000F5F30133C3F30B0343F4404388E704235D
:1023500086E7012384E7012070470120ACE700BF36
:10236000A08601007F841E0083DE1B43FF083D0022
:10237000D34D62102DE9F04383B004460F469046DA
:1023800099460C9EFFF714FB94F83D20202A03D0B9
:10239000022003B0BDE8F083054600901923012216
:1023A0004A492046FFF797FC002840F0898094F8BE
:1023B0003C30012B00F08680012384F83C302368F8
:1023C0001A6812F0010F03D11A6842F001021A6074
:1023D0002268136823F400631360212384F83D30DE
:1023E000402384F83E30002323640A9B6362BDF8D7
:1023F0002C306385638D2385354BE3620195009610
:102400004B46424639462046FFF754FD00285BD133
:10241000238D002B35D02A4631462046FFF71BFD81
:1024200020BB626A236812781A61626A531C636275
:10243000218D013989B22185638D9BB2013B9BB20D
:1024400063852368586910F0040FE1D00029DFD0BC
:1024500052781A61636A01336362238D013B2385DD
:10246000638D9BB2013B9BB26385D1E7236C042B48
:1024700001D001208DE72268136843F400731360D4
:10248000F7E72A4631462046FFF72AFE50B1236C73
:10249000042B01D001207CE72268136843F4007309
:1024A0001360F7E72268136843F400731360202376
:1024B00084F83D30002384F83E3084F83C3068E7EF
:1024C000022066E7022064E7012062E702001000B4
:1024D0000000FFFF2DE9F04387B004460F46904609
:1024E0009946109EFFF764FA94F83D20202A04D004
:1024F0000227384607B0BDE8F0830546009019234F
:10250000012289492046FFF7E6FB002840F04E8172
:1025100094F83C30012B00F04B81012384F83C30CF
:1025200023681A6812F0010F03D11A6842F0010201
:102530001A602268136823F400631360222384F86E
:102540003D30402384F83E30002323640E9B6362B9
:10255000BDF83C306385638D2385744BE362019540
:1025600000964B46424639462046FFF70FFD074688
:10257000002840F01F81238D5BB9029323685A69BC
:1025800002929A690292029A1A6842F400721A60E0
:1025900075E0012B0AD0022B1AD000230593236883
:1025A0005A6905929B690593059B68E02268136848
:1025B00023F4806313600023039323685A69039212
:1025C0009A690392039A1A6842F400721A6056E0FC
:1025D0002268136823F4806313602268136843F44D
:1025E000006313600023049323685A6904929B6973
:1025F0000493049B43E02A4631462046FFF79FFDA3
:10260000002840F0D98023681A69636A1A70636AE7
:1026100001336362238D013B2385638D9BB2013BB4
:102620009BB263852BE0009533460022404920464B
:10263000FFF751FB002840F0C1802268136843F483
:102640000073136023681A69636A1A70626A531C04
:102650006362238D013B2385638D9BB2013B9BB25B
:10266000638523681B695370636A01336362238D3A
:10267000013B2385638D9BB2013B9BB26385238D18
:10268000002B00F08A80032B54D8012BB3D0022BEF
:10269000C9D000953346002225492046FFF71BFB91
:1026A000002840F08D802268136823F48063136053
:1026B00023681A69636A1A70636A01336362238D3F
:1026C000013B2385638D9BB2013B9BB263850095E3
:1026D0003346002216492046FFF7FDFA002871D143
:1026E0002268136843F40073136023681A69636AED
:1026F0001A70626A531C6362238D013B2385638DCC
:102700009BB2013B9BB2638523681B695370636A6C
:1027100001336362238D013B2385638D9BB2013BB3
:102720009BB26385ABE700BF020010000000FFFF13
:10273000040001002A4631462046FFF700FD00282C
:1027400042D123681A69636A1A70636A013363624B
:10275000228D013A92B22285638D9BB2013B9BB2DE
:1027600063852368596911F0040F88D0032A0FD0BC
:1027700023681A69636A1A70636A01336362238D7E
:10278000013B2385638D9BB2013B9BB2638576E75A
:102790001A6822F480621A60EAE7202384F83D3048
:1027A000002384F83E3084F83C30A2E60227A0E6FD
:1027B00002279EE601279CE601279AE6012798E674
:1027C000012796E6012794E6012792E682B00021D0
:1027D00000910B4B5A6C42F480425A645A6C02F4DA
:1027E00080420092009A01911A6C42F080521A6461
:1027F0001B6C03F080530193019B02B0704700BF34
:1028000000380240002800F0E08170B582B0044634
:10281000036813F0010F3BD09F4B9B6803F00C0340
:10282000042B2CD09C4B9B6803F00C03082B21D06D
:102830006368B3F5803F4FD0B3F5A02F52D0964BCD
:102840001A6822F480321A601A6822F480221A6010
:102850006368002B50D0FFF7ABF805468E4B1B6822
:1028600013F4003F14D1FFF7A3F8401B6428F5D9F7
:102870000320B1E1884B5B6813F4800FD8D0864BFE
:102880001B6813F4003F03D06368002B00F09F81A6
:10289000236813F0020F54D07F4B9B6813F00C0F8A
:1028A0003ED07D4B9B6803F00C03082B33D0E368CC
:1028B000002B68D0794B01221A60FFF779F80546A2
:1028C000754B1B6813F0020F54D1FFF771F8401BD2
:1028D0000228F5D903207FE16F4A136843F480335F
:1028E0001360B5E76C4B1A6842F480221A601A68CC
:1028F00042F480321A60ABE7FFF75AF80546664BA0
:102900001B6813F4003FC3D0FFF752F8401B642844
:10291000F5D9032060E1604B5B6813F4800FC6D1EA
:102920005D4B1B6813F0020F03D0E368012B40F0EE
:102930005081594A136823F0F803216943EAC1031F
:102940001360236813F0080F42D063696BB3534BD5
:102950000122C3F8802EFFF72BF805464E4B5B6F24
:1029600013F0020F34D1FFF723F8401B0228F5D9EA
:10297000032031E1484A136823F0F803216943EA50
:10298000C1031360DDE7454B00221A60FFF710F822
:102990000546414B1B6813F0020FD2D0FFF708F831
:1029A000401B0228F5D9032016E13C4B0022C3F856
:1029B000802EFEF7FDFF0546374B5B6F13F0020FCD
:1029C00006D0FEF7F5FF401B0228F5D9032003E1EE
:1029D000236813F0040F77D02F4B1B6C13F0805F2C
:1029E00033D1002301932C4B1A6C42F080521A64AD
:1029F0001B6C03F080530193019B0125284B1B683E
:102A000013F4807F23D0A368012B34D0052B38D05A
:102A1000214B1A6F22F001021A671A6F22F004028A
:102A20001A67A368002B3DD0FEF7C2FF06461A4B7B
:102A30001B6F13F0020F46D1FEF7BAFF801B41F265
:102A400088339842F3D90320C6E00025D6E7144A1C
:102A5000136843F480731360FEF7AAFF0646104B19
:102A60001B6813F4807FCED1FEF7A2FF801B0228E3
:102A7000F5D90320B0E0084A136F43F00103136750
:102A8000CFE7054B1A6F42F004021A671A6F42F043
:102A900001021A67C5E700BF003802400000474244
:102AA00000700040FEF784FF0646524B1B6F13F088
:102AB000020F08D0FEF77CFF801B41F2883398425A
:102AC000F3D9032088E0EDB9A369002B00F08380DF
:102AD000484A926802F00C02082A51D0022B17D003
:102AE000454B00221A66FEF763FF0446414B1B6804
:102AF00013F0007F42D0FEF75BFF001B0228F5D9E0
:102B0000032069E03B4A136C23F080531364DBE736
:102B1000394B00221A66FEF74BFF0546354B1B6802
:102B200013F0007F06D0FEF743FF401B0228F5D9C3
:102B3000032051E0E369226A1343626A43EA821385
:102B4000A26A5208013A43EA0243E26A43EA026394
:102B5000284A5360284B01221A66FEF729FF0446D3
:102B6000244B1B6813F0007F06D1FEF721FF001BEA
:102B70000228F5D903202FE000202DE000202BE0D3
:102B8000012B2BD01B4B5B6803F48001E26991425F
:102B900026D103F03F02216A8A4223D1616A47F6B7
:102BA000C0721A40B2EB811F1ED103F44031A26AF9
:102BB0005208013AB1EB024F18D103F07063E26A98
:102BC000B3EB026F14D1002006E001207047012012
:102BD00002E0012000E0002002B070BD0120FBE710
:102BE0000120F9E70120F7E70120F5E70120F3E7ED
:102BF0000120F1E7003802400000474208B5264BAB
:102C00009B6803F00C03042B41D0082B41D1224BCD
:102C10005A6802F03F025B6813F4800F12D01E4B1B
:102C20005968C1F388111D480023A1FB0001FDF77D
:102C3000F3FF194B5B68C3F3014301335B00B0FB47
:102C4000F3F008BD144B5868C0F388104FEA401CDD
:102C5000BCEB000C6EEB0E0E4FEA8E1343EA9C6346
:102C60004FEA8C11B1EB0C0163EB0E03DB0043EA7E
:102C70005173C90011EB000C43F1000399020023CA
:102C80004FEA8C2041EA9C51FDF7C6FFD1E703488B
:102C9000D7E70348D5E700BF0038024040787D0100
:102CA0000024F400002800F09B8070B50D46044617
:102CB0004F4B1B6803F007038B4208D2CBB24C4A40
:102CC0001370136803F007038B4240F08B80236876
:102CD00013F0020F17D013F0040F04D0454A936885
:102CE00043F4E0539360236813F0080F04D0414A83
:102CF000936843F4604393603E4A936823F0F00383
:102D0000A1680B439360236813F0010F32D063680E
:102D1000012B21D09A1E012A25D9364A126812F0B9
:102D2000020F61D033498A6822F0030213438B609B
:102D3000FEF73EFE06462F4B9B6803F00C036268CD
:102D4000B3EB820F16D0FEF733FE801B41F28833BF
:102D50009842F0D9032042E0264A126812F4003F5C
:102D6000E0D101203BE0234A126812F0007FD9D164
:102D7000012034E01E4B1B6803F00703AB4207D968
:102D8000EAB21B4B1A701B6803F00703AB422DD14C
:102D9000236813F0040F06D0164A936823F4E05317
:102DA000E1680B439360236813F0080F07D0114AC2
:102DB000936823F46043216943EAC1039360FFF7FA
:102DC0001DFF0C4B9B68C3F303130B4AD35CD84025
:102DD0000A4B18600A4B1868FEF79EFD002070BD74
:102DE000012070470120FAE70120F8E70120F6E70B
:102DF000003C0240003802404C70000808000020EF
:102E000004000020014B1868704700BF0800002034
:102E100008B5FFF7F7FF044B9B68C3F38223034A0F
:102E2000D35CD84008BD00BF0038024044700008A1
:102E300008B5FFF7E7FF044B9B68C3F34233034A2F
:102E4000D35CD84008BD00BF003802404470000881
:102E500030B4026A036A23F00103036245688369A0
:102E600023F073030C681C4322F002028B681343A7
:102E70000B4A904206D0456084614A68426303620F
:102E800030BC704723F00803CA681A4322F00403D9
:102E900025F440754A692A438D691543EBE700BF65
:102EA0000000014030B4036A026A22F480720262B8
:102EB0004468C26922F073020D68154323F400735D
:102EC0008A6843EA02230D4A904206D04460C561F5
:102ED0004A68C263036230BC704723F40063CA6867
:102EE00043EA022323F4806324F440544A6944EA09
:102EF00002148A6944EA0214E8E700BF00000140B6
:102F000030B4036A026A22F4805202624468C269E1
:102F100022F4E6420D6842EA052223F400538D684C
:102F200043EA0533074DA84206D04460C2614A68AF
:102F30000264036230BC704724F480444D6944EA63
:102F40008514F2E70000014010B4036A046A24F01B
:102F500001040462846924F0F00C4CEA021223F0AC
:102F60000A030B43826103625DF8044B704710B49F
:102F7000036A046A24F010040462846924F4704C27
:102F80004CEA023223F0A00343EA01138261036298
:102F90005DF8044B7047836823F070030B4343F0E4
:102FA00007038360704770477047704770477047EA
:102FB000704770B504460368DE681D6915F0020F9E
:102FC00010D016F0020F0DD06FF002021A6101232B
:102FD000037703689B6913F0030F5ED0FFF7E6FFEA
:102FE0000023237715F0040F12D016F0040F0FD032
:102FF00023686FF004021A610223237723689B6918
:1030000013F4407F4FD02046FFF7D0FF00232377F3
:1030100015F0080F12D016F0080F0FD023686FF0CC
:1030200008021A61042323772368DB6913F0030F76
:1030300040D02046FFF7BAFF0023237715F0100F8A
:1030400012D016F0100F0FD023686FF010021A6123
:10305000082323772368DB6913F4407F31D02046AF
:10306000FFF7A4FF0023237715F0010F02D016F01D
:10307000010F2DD115F0800F02D016F0800F2FD147
:1030800015F0400F02D016F0400F31D115F0200F8F
:1030900002D016F0200F33D170BDFFF786FF204617
:1030A000FFF785FF9CE72046FFF77FFF2046FFF7ED
:1030B0007EFFABE72046FFF778FF2046FFF777FF5C
:1030C000BAE72046FFF771FF2046FFF770FFC9E718
:1030D00023686FF001021A612046FFF765FFC9E718
:1030E00023686FF080021A61204600F0D1FAC7E72A
:1030F00023686FF040021A612046FFF759FFC5E7C9
:1031000023686FF020021A61204600F0C0FAC3E77E
:103110000368294A90420ED0B0F1804F0BD0A2F53F
:103120007C42904207D002F58062904203D002F5C3
:103130008062904203D123F070034A6813431E4A11
:1031400090421AD0B0F1804F17D0A2F57C42904245
:1031500013D002F5806290420FD002F58062904257
:103160000BD002F59A32904207D002F5806290426D
:1031700003D002F58062904203D123F44073CA6801
:10318000134323F080034A69134303608B68C362CF
:103190000B688362084B98420AD00123436103699C
:1031A00013F0010F03D0036923F00103036170479B
:1031B0000B690363F1E700BF0000014040B310B5A5
:1031C000044690F83D30F3B1022384F83D302146A7
:1031D00051F8040BFFF79CFF012384F8463084F874
:1031E0003E3084F83F3084F8403084F8413084F831
:1031F000423084F8433084F8443084F8453084F811
:103200003D30002010BD80F83C3000F065FCDBE76D
:103210000120704740B310B5044690F83D30F3B13B
:10322000022384F83D30214651F8040BFFF770FF6C
:10323000012384F8463084F83E3084F83F3084F827
:10324000403084F8413084F8423084F8433084F8C8
:10325000443084F8453084F83D30002010BD80F8BB
:103260003C30FFF7A0FEDBE70120704730B4036A73
:10327000026A22F0100202624468826922F4E64285
:103280000D6842EA052223F020038D6843EA051306
:103290000C4DA84206D0446082614A688263036292
:1032A00030BC704723F08003CD6843EA051323F058
:1032B000400324F440644D6944EA85048D6944EA7E
:1032C0008504E8E70000014038B590F83C30012B58
:1032D00066D004460D46012380F83C300C2A5AD8AB
:1032E000DFE802F0075959591B59595930595959B2
:1032F00044000068FFF7ACFD2268936943F00803BF
:1033000093612268936923F00403936122689369AF
:1033100029690B43936100203EE00068FFF7A6FF98
:103320002268936943F4006393612268936923F4EC
:103330008063936122689369296943EA0123936159
:10334000002029E00068FFF7ADFD2268D36943F053
:103350000803D3612268D36923F00403D361226890
:10336000D36929690B43D361002015E00068FFF79A
:10337000C7FD2268D36943F40063D3612268D3692F
:1033800023F48063D3612268D369296943EA012366
:10339000D361002000E00120002384F83C3038BDD8
:1033A0000220FCE710B4846824F47F4C42EA032234
:1033B0000A4342EA0C0282605DF8044B704790F8C1
:1033C0003C30012B78D010B50446012380F83C3006
:1033D000022380F83D300268936823F47F4323F092
:1033E000770393600B68602B4CD023D8402B54D0CC
:1033F00011D8202B03D00AD80BB1102B05D11946B8
:103400002068FFF7C8FD002028E0012026E0302BCF
:10341000F5D0012022E0502B0AD1CA684968006823
:10342000FFF792FD50212068FFF7B5FD002015E061
:10343000012013E0B3F5805F3AD0B3F5005F14D0FC
:10344000702B37D1CB684A6889680068FFF7AAFFFC
:103450002268936843F0770393600020012384F887
:103460003D30002384F83C3010BDCB684A68896841
:103470000068FFF797FF2268936843F480439360E6
:103480000020EBE7CA6849680068FFF770FD60211B
:103490002068FFF780FD0020E0E7CA6849680068FF
:1034A000FFF752FD40212068FFF775FD0020D5E7AA
:1034B0000020D3E70120D1E70220704701F01F016F
:1034C0004FF0010C0CFA01FC036A23EA0C030362BF
:1034D000036A8A40134303627047000010B5044634
:1034E000084689BB94F83E30013B18BF0123002BEE
:1034F00060D100283ED1022384F83E3001220146EB
:103500002068FFF7DBFF23682C4A934242D02368F0
:103510002A4A934243D0B3F1804F40D0A2F57C4277
:1035200093423CD002F58062934238D002F580622B
:10353000934234D002F59A32934230D01A6842F066
:1035400001021A60002034E0042907D008290BD0BA
:1035500094F84130013B18BF0123C8E794F83F308D
:10356000013B18BF0123C2E794F84030013B18BF6C
:103570000123BCE7042805D0082807D0022384F8DB
:103580004130BBE7022384F83F30B7E7022384F8D9
:103590004030B3E75A6C42F400425A64B7E79A6885
:1035A00002F00702062A07D01A6842F001021A60E8
:1035B000002010BD0120FCE70020FAE700000140D8
:1035C00090F83C20012A35D010B40346012280F83F
:1035D0003C20022280F83D2002685068946820F068
:1035E000700C086840EA0C0050601A681248824269
:1035F00012D0B2F1804F0FD0A0F57C4082420BD0A8
:1036000000F58060824207D000F58060824203D0DE
:1036100000F59A30824204D124F0800449682143A5
:103620009160012283F83D20002083F83C005DF882
:10363000044B70470220704700000140024690F89A
:103640003C30012B21D0012380F83C30CB6823F49F
:1036500040738868034323F480634868034323F47A
:1036600000630868034323F480530869034323F489
:1036700000534869034323F48043C9690B4311682D
:103680004B64002082F83C0070470220704770476E
:103690007047026802F10C0353E8003F23F4907373
:1036A0000C3242E800310029F3D1026802F1140320
:1036B00053E8003F23F00103143242E800310029AF
:1036C000F3D1036B012B05D0202380F84230002377
:1036D00003637047026802F10C0353E8003F23F0D4
:1036E00010030C3242E800310029F3D1ECE700006E
:1036F00010B504460268136923F44053C1680B43B4
:103700001361836802691A4343691A43C3691A4300
:103710000168CB6823F4164323F00C031343CB60FA
:103720000268536923F4407381690B435361036852
:10373000314A934206D002F58062934202D0FFF7ED
:1037400067FB01E0FFF774FBE369B3F5004F29D095
:103750000021031849411B1841F10001C90041EA49
:103760005371DB00181863684FEA83024FEA9373C2
:1037700041F10001FDF750FA204AA2FB003149094E
:10378000642303FB11031B013233A2FB03235B09F8
:1037900003F0F00202EB011203F00F03216813445F
:1037A0008B6010BD0023021843EB0301121841F196
:1037B0000001C90041EA5271D200101841F1000124
:1037C000626892185B41FDF727FA0C4AA2FB0031B0
:1037D0004909642303FB1103DB003233A2FB0323FB
:1037E0005B095A0002F4F87202EB011203F00703BE
:1037F000216813448B60D4E7001001401F85EB5112
:103800002DE9F04383B005460E4617469946DDF88C
:1038100028802B681C6836EA04040CBF01240024AD
:10382000BC4228D1B8F1FF3FF3D0FEF7C1F8A0EBBE
:103830000900404523D8B8F1000F22D02B68DA6880
:1038400012F0040FE5D0802EE3D0402EE1D01A68AC
:1038500012F0080FDDD0002401941A6801925B6811
:103860000193019B2846FFF714FF08236B6485F83A
:103870004040012000E0002003B0BDE8F0830320B9
:10388000FAE70320F8E760B310B5044690F841303A
:1038900013B3242384F841302268D36823F40053FF
:1038A000D3602046FFF724FF2268136923F4904376
:1038B00013612268536923F02A0353612268D36895
:1038C00043F40053D36000206064202384F8413027
:1038D00084F84230606310BD80F8403000F0F2F9A7
:1038E000D7E7012070472DE9F04182B01E4690F8DD
:1038F0004130202B56D104460D469046002955D024
:103900000AB901204FE000234364212380F84130AD
:10391000FEF74EF80746A4F82480A4F82680A36892
:10392000B3F5805F02D04FF0000814E023692BB399
:103930004FF000080FE0202384F84130032032E0EC
:1039400038F8023B2268C3F308035360E28C92B25A
:10395000013A92B2E284E38C9BB293B100963B466B
:10396000002280212046FFF74BFF0028E3D1002DE5
:10397000E6D015F8012B23685A60E7E7A846002532
:10398000E9E700963B46002240212046FFF738FF3A
:1039900018B9202384F8413005E0202384F8413011
:1039A000032000E0022002B0BDE8F0810120FAE728
:1039B000FEE7FEE7FEE7FEE7FEE770477047704769
:1039C00008B5FDF7E9FF08BD08B50248FFF7F1FAB1
:1039D00008BD00BF7002002008B50248FFF7E9FAF1
:1039E00008BD00BF7002002008B50248FFF7E1FAE9
:1039F00008BD00BF7002002008B50248FFF7D9FAE1
:103A000008BD00BF700200200120704708B500F01B
:103A10009DFF162303604FF0FF3008BD08B54FF03F
:103A2000FF31FFF7F3FFFEE770B50C4616460025A1
:103A300006E0AFF30080214601F8010B01350C468A
:103A4000B542F6DB304670BD70B50C461646002513
:103A500004E014F8010BAFF300800135B542F8DB48
:103A6000304670BD4FF0FF3070474FF400534B604D
:103A700000207047012070470020704710B50346B2
:103A80000C4A0D490D48006840B10C4800680344D9
:103A9000521A934206D8094A136010BD0748084CD1
:103AA0000460F2E700F052FF0C2303604FF0FF3098
:103AB000F3E700BF00000220000400006C020020B9
:103AC00050040020034AD2F8883043F47003C2F84F
:103AD0008830704700ED00E002681A4B9A4200D02F
:103AE000704710B582B00024019403F59C335A6CE2
:103AF00042F001025A645B6C03F001030193019BE5
:103B0000224621461820FDF7C1FF1820FDF7CEFF01
:103B1000224621461920FDF7B9FF1920FDF7C6FFFF
:103B2000224621461A20FDF7B1FF1A20FDF7BEFFFD
:103B3000224621461B20FDF7A9FF1B20FDF7B6FFFB
:103B400002B010BD0000014000B587B00023019312
:103B5000029303930493059302680F4B9A4202D099
:103B600007B05DF804FB002300930C4B1A6B42F086
:103B700001021A631B6B03F001030093009B4FF4D7
:103B800080730193022302930123059301A9044842
:103B9000FDF7A4FFE4E700BF000001400038024049
:103BA0000000024010B596B00024129413941494AF
:103BB00015941094119409940A940B940C940D94F8
:103BC0000E940F942022214601A800F05DFE2E489D
:103BD0002E4B036040F2E7334360846040F2CF73C2
:103BE000C360046144618461FFF7E8FA002838D1BA
:103BF0004FF48053129312A92348FFF7E0FB0028EB
:103C000032D12148FFF706FB002830D10023109362
:103C1000119310A91C48FFF7D3FC58BB60230993EC
:103C2000E1230A9300220B920C920D920E920F92B6
:103C300009A91548FFF748FBF8B90023019302933F
:103C40000393049305934FF400520692089301A93D
:103C50000D48FFF7F3FC98B90B48FFF775FF16B056
:103C600010BDFDF76DFCC3E7FDF76AFCC9E7FDF782
:103C700067FCCBE7FDF764FCD0E7FDF761FCDCE710
:103C8000FDF75EFCE8E700BF700200200000014085
:103C900008B50A480A4B03604FF4E1334360002340
:103CA0008360C36003610C2242618361C361FFF7DB
:103CB000EAFD00B908BDFDF743FCFBE7B8020020B0
:103CC0000010014000B589B00023039304930593CD
:103CD00006930793026803F1804303F588339A4201
:103CE00002D009B05DF804FB0021019103F5943383
:103CF0005A6C42F010025A645A6C02F0100201929F
:103D0000019A02911A6B42F001021A631B6B03F0D5
:103D100001030293029B4FF4C063039302230493B5
:103D2000032306930723079303A90248FDF7D6FE52
:103D3000D7E700BF00000240DFF834D0FFF7C2FE33
:103D40000C480D490D4A002302E0D458C4500433F6
:103D5000C4188C42F9D30A4A0A4C002301E01360CC
:103D60000432A242FBD300F0F7FDFDF73BFC7047A5
:103D70000000022000000020D4010020B4730008DD
:103D8000D40100204C040020FEE72DE9FF4757EC4A
:103D9000106B002F0C4619463B46BBBF07F1004392
:103DA0001F4600232D230B700D9BDDF830A091469C
:103DB00023F02008BCBF32461646B8F1460F05D0A6
:103DC000B8F1450F00D10134022100E0032103AB1B
:103DD000019302AB009347EC106B5346224600F070
:103DE0006BFEB8F1470F054619D119F0010F0ED03F
:103DF00000EB04090022002330463946FCF74CFE54
:103E000008B1CDF80C903022039B4B451ED3039B89
:103E10000E9A5B1B2846136004B0BDE8F087B8F12A
:103E2000460F00EB0409E5D10378302B0AD10022BC
:103E3000002330463946FCF72FFE18B9C4F10104BF
:103E4000CAF80040DAF800309944D3E7591C0391CE
:103E50001A70D9E7F7B50029BABF49422D232B23A1
:103E600009290270437029DD0DF1070425460A2750
:103E70002246B1FBF7F607FB1613303302F8013C7C
:103E80000B46632B04F1FF343146F1DC3031931ED5
:103E900004F8011C411C1C46AB420AD30DF1090376
:103EA0009B1AA54238BF0023821C1344181A03B082
:103EB000F0BD13F8016B01F8016FEDE730233031ED
:103EC0008370C170031DF1E72DE9F04F8DB00C46F2
:103ED000DDF8588016461F46054600F0EDFC0368E5
:103EE00006931846FCF7ACF900230A93D8F8003083
:103EF00094F818A0D4F800B00790073323F0070314
:103F0000B3EC027B8DED047BC8F80030DDE904835F
:103F100023F0004984ED127B9C4B4FF0FF3240466A
:103F20004946FCF7EBFD70BB984B4FF0FF32404623
:103F30004946FCF7C5FD30BBDDE904010022002342
:103F4000FCF7B4FD10B12D2384F84330904A914B17
:103F5000BAF1470F8CBF90469846032323612BF09C
:103F6000040323604FF00009009733460BAA214653
:103F7000284600F0D1F9013040F08C804FF0FF303E
:103F80000DB0BDE8F08FDDE9042310461946FCF7BB
:103F9000B5FD40B1059B804A002BBCBF2D2384F8A2
:103FA00043307E4BD4E763685A1C0AF0DF093BD1EB
:103FB000062363604BF480620023226003930AAB04
:103FC000CDE901A309AB009361689DED040B0DF1F0
:103FD00023032846FFF7D9FEB9F1470F0999804618
:103FE00029D1C81C02DB63688B4241DAAAF1020ABC
:103FF0005FFA8AFA0139524604F150000991FFF73D
:1040000029FF0A9A1318012A8146236102DC2268DB
:10401000D20701D5013323619DF82330002BA3D0B3
:104020002D2384F843309FE7B9F1470FC2D1002B0D
:10403000C0D10123BDE7BAF1650FDBD9BAF1660F34
:1040400018D1002963680BDD216113B92268D007FC
:1040500002D501330B442361A1654FF00009DBE772
:1040600013B92268D20701D50233F4E70123F2E73E
:104070004FF0670A0A9B8B4205DC23682161D80751
:10408000EAD54B1CE7E70029D4BFC1F102020122A7
:104090001344E0E723685A0507D4236942463146B2
:1040A0002846B84701302BD168E7BAF1650F40F2D6
:1040B000DD80D4E9120100220023FCF7EDFC00288A
:1040C00033D0374A012331462846B84701303FF400
:1040D00055AFDDE90938434502DB2368D8070FD522
:1040E000DDE9062331462846B84701303FF446AFA4
:1040F0004FF0000908F1FF3804F11A0AC84509DC3D
:1041000023689B0700F10381E0680B9B9842B8BFCE
:10411000184635E70123524631462846B847013054
:104120003FF42CAF09F10109E8E7099B002B39DCCA
:104130001B4A012331462846B84701303FF41EAFE1
:10414000DDE9093959EA030302D12368D907D7D534
:10415000DDE9062331462846B84701303FF40EAF6B
:104160004FF0000A04F11A0B099B5B42534501DC36
:104170004B4693E701235A4631462846B84701305B
:104180003FF4FCAE0AF1010AEEE700BFFFFFEF7F4C
:10419000607000085C7000086870000864700008B7
:1041A0006C700008A36DDDF828A05345A8BF5346E6
:1041B000002B994636DC4FF0000B29EAE97904F12F
:1041C0001A02A36D0493A3EB09035B4531DC099B41
:1041D0009A453ADC2368DA0737D4099BAAEB03092E
:1041E000049BAAEB03039945A8BF9946B9F1000FB8
:1041F00033DC4FF0000829EAE97904F11A0B099B36
:10420000AAEB0303A3EB090343457FF779AF01232F
:104210005A4631462846B84701303FF4AFAE08F160
:104220000108ECE7424631462846B8470130C2D182
:10423000A4E60123314628460492B84701303FF4F2
:104240009DAE049A0BF1010BBBE7DDE90623314675
:104250002846B8470130C0D190E6049A4B46424404
:1042600031462846B8470130C3D187E6DDF828A09B
:10427000BAF1010F01DCDB0736D501234246314696
:104280002846B84701303FF479AEDDE906233146D0
:104290002846B84701303FF471AED4E9120100223C
:1042A00000230AF1FF3AFCF7F7FBC0B9534608F1C7
:1042B000010231462846B84701300CD15EE60123A1
:1042C0005A4631462846B84701303FF457AE08F108
:1042D0000108D045F3DB4B4604F15002DFE64FF016
:1042E000000804F11A0BF4E701234246E1E7012339
:1042F0004A4631462846B84701303FF43FAE08F100
:104300000108E3680B995B1A4345F0DCFCE64FF0CB
:10431000000804F11909F4E72DE9F047164698461C
:104320008A680B69DDF820909342B8BF134633606A
:1043300091F8432007460C460AB1013333602368E5
:10434000990642BF336802333360256815F00605CD
:1043500006D104F1190AE36832689B1AAB4226DCE5
:1043600094F843302268003B18BF012392062BD4F7
:1043700004F1430241463846C84701301ED0236845
:10438000226903F00603042B02BFE5683368ED1AC7
:10439000A3680CBF25EAE57500259342C4BF9B1AAC
:1043A000ED1800261A34B5421AD1002008E0012386
:1043B000524641463846C847013003D14FF0FF30DE
:1043C000BDE8F0870135C6E7E1185A1C302081F8B6
:1043D0004300224494F8451082F843100233C7E7A3
:1043E0000123224641463846C8470130E6D001360F
:1043F000D9E700002DE9FF470F7E0C9E782F9146EC
:1044000080460C469A4601F1430207D8622F0AD82B
:10441000002F00F0D280582F00F0B78004F1420640
:1044200084F842703AE0A7F16303152BF6D801A196
:1044300051F823F08D440008A14400081D440008F1
:104440001D4400081D4400081D440008A144000844
:104450001D4400081D4400081D4400081D440008B8
:10446000A1450008CB440008574500081D4400083A
:104470001D440008C34500081D440008CB44000843
:104480001D4400081D4400085F45000833681A1DDC
:104490001B68326004F1420684F8423001239DE03B
:1044A00033682068191D3160060601D51D6803E0D8
:1044B0004506FBD5B3F90050002D03DA2D236D42DC
:1044C00084F8433059480A2310E02168336808060D
:1044D00053F8045B02D4490648BFADB26F2F53486E
:1044E000336059D10823002184F843106668A66020
:1044F000002E05DB21682E4321F0040121604DD000
:104500001646B5FBF3F103FB1157C75D06F8017DB5
:104510002F46BB420D46F4D9082B0BD12368DF0789
:1045200008D5236961689942DEBF302306F8013C53
:1045300006F1FF36921B2261CDF800A04B4603AA7C
:1045400021464046FFF7E8FE01304CD14FF0FF30E6
:1045500004B0BDE8F087236843F0200323603448AB
:10456000782784F84570236831681F0651F8045B8A
:1045700002D45F0648BFADB23160D90744BF43F0F3
:10458000200323601DB11023ADE72848E9E7236825
:1045900023F020032360F6E70A23A4E71646BBE7CF
:1045A000336825686169181D30602E061B6801D5C7
:1045B000196002E06806FBD51980002323611646C6
:1045C000BAE733681A1D32601E68626800213046FF
:1045D000FBF7E6FD08B1801B606063682361002380
:1045E00084F84330A8E72369324649464046D0471D
:1045F0000130ABD023689B0713D4E068039B98423B
:10460000B8BF1846A4E70123324649464046D04782
:1046100001309BD00135E36803995B1AAB42F2DCB1
:10462000EBE7002504F11906F5E700BF6E700008FE
:104630007F700008002310B50446C0E90033C0E9CC
:104640000433836081814366C281836119460822F5
:104650005C3000F019F90D4B63620D4BA3620D4BFA
:10466000E3620D4B23630D4B24629C4206D003F1A1
:104670006802944202D0D0339C4205D104F1580024
:10468000BDE8104000F08CB910BD00BF0148000823
:10469000234800085B480008814800080003002008
:1046A000024A0349034800F06BB800BF0C00002029
:1046B000556300081C00002041680C4B994210B55E
:1046C000044601D001F046FEA168094B994202D090
:1046D000204601F03FFEE168064B994204D0204697
:1046E000BDE8104001F036BE10BD00BF0003002041
:1046F00068030020D00300200C4B0D4A0D4810B574
:1047000004211A600022FFF795FF0A4B01221C4684
:10471000092103F16800FFF78DFF04F1D0000222A8
:10472000BDE810401221FFF785BF00BF380400200C
:10473000A146000800030020014800F032B900BF84
:1047400041040020014800F02DB900BF41040020C1
:1047500010B50446FFF7F0FF236A1BB1BDE8104017
:10476000FFF7F0BF044B2362044B1B68002BF5D10D
:10477000FFF7C2FFF2E700BFB94600083804002087
:104780002DE9F8430746884614460026D4E90195EA
:10479000B9F1010905D52468002CF7D13046BDE8F0
:1047A000F883AB89012B07D9B5F90E30013303D05B
:1047B00029463846C04706436835E9E70EB410B5C8
:1047C0009DB01FAB029006906FF000410A48079120
:1047D00004910A4953F8042B0591002402A90068AA
:1047E00001931B9401F038FC029B1C701DB0BDE8C6
:1047F000104003B0704700BF180000200802FFFF00
:1048000010B50C46B1F90E1000F07CF80028ABBFD3
:10481000636DA3891B1823F48053ACBF6365A38128
:1048200010BD2DE9F0411F468B89DB0505460C467E
:10483000164605D5B1F90E100223002200F050F8FB
:10484000A389B4F90E1023F48053A38132463B466A
:104850002846BDE8F04100F067B810B50C46B1F944
:104860000E1000F03DF8B4F90C30421C0BBF23F4DD
:10487000805343F48053A381A38118BF606510BDAA
:10488000B1F90E1000F01CB802440346934200D167
:10489000704703F8011BF9E710B502461478134678
:1048A0000132002CFAD1013B11F8012B03F8012F42
:1048B000002AF9D110BD00000048704758010020BF
:1048C00038B5064D0023044608462B60FFF7CAF8AA
:1048D000431C02D12B6803B1236038BD3C04002087
:1048E00038B5074D04460846114600222A601A468C
:1048F000FFF7C2F8431C02D12B6803B1236038BD17
:104900003C04002038B5074D0446084611460022F5
:104910002A601A46FFF788F8431C02D12B6803B1BE
:10492000236038BD3C04002038B5074D04460846D6
:10493000114600222A601A46FFF786F8431C02D16E
:104940002B6803B1236038BD3C040020014B18687C
:10495000704700BF1800002070B50D4B0D4D5B1B5C
:104960009C100026A64209D102F0EAF90A4D0B4B31
:104970005B1B9C100026A64205D170BD55F8043B78
:1049800098470136EEE755F8043B98470136F2E7C1
:10499000AC730008AC730008AC730008B073000877
:1049A0007047704770472DE9F74F03690C69A342C0
:1049B00007467EDB013C01F11408A30000F1140559
:1049C000009305EB8403019358F8243055F8242014
:1049D00001339A4208EB8409B2FBF3F62ED34FF071
:1049E000000AC446AE46D3465CF8043B98B206FBC8
:1049F00000A0020C1B0C06FB0323DEF8002080B293
:104A000092B2121A5A44DEF800004FEA134A9BB2DF
:104A1000C3EB224303EB104392B242EA0342E14567
:104A20004EF8042B4FEA234BDED2009BEB582BB9F8
:104A3000019B043B9D421A462FD33C61384601F04E
:104A40009FF9002825DB2946002058F8042BD1F8CF
:104A500000C01FFA82FE1FFA8CF3A3EB0E0303447F
:104A6000120CC2EB234202EB1C429BB243EA02430C
:104A7000C14541F8043B4FEA2240E6D255F82420D4
:104A800005EB840322B9043B9D421A460BD33C61DB
:104A90000136304603B0BDE8F08F1268043B002AAF
:104AA000CBD1013CC6E71268043B002AEFD1013CA0
:104AB000EAE70020EEE700002DE9F04F99B08DED18
:104AC0000E0B0C92C269229C0A9157EC106B814626
:104AD000139382B9102000F021FE0246C9F81C0091
:104AE00020B9B14BEF21B14801F094FC0023C0E99B
:104AF00001330360C360116859B152684A600123F1
:104B000093408B60484600F0FDFED9F81C3000222F
:104B10001A60B7F10008B5BF0123002323602360AA
:104B2000A34BBCBF28F00048CDF83C8033EA080313
:104B30001AD1139AC8F3130842F20F7358EA060801
:104B4000136000F07485239B53B99A4B21E09A4B74
:104B500000930833239A1360009819B0BDE8F08FD2
:104B6000944B00930333F5E79DED0E7B002251EC4F
:104B7000170B00238DED067BFBF78EFF824650B1AD
:104B8000139A01231360239B13B1239A8B4B136059
:104B90008B4B0093E0E79DED060B16AA17A948463C
:104BA00001F0A2F95FEA1854169D019000F082808E
:104BB000079BCDF850A0C3F31303DDE9060143F0D2
:104BC0007F5343F44013A4F2FF34194600227D4B77
:104BD000FBF742FB6EA3D3E90023FBF7F5FC6EA3C2
:104BE000D3E90023FBF73AFB064620460F46FBF7C6
:104BF00081FC6BA3D3E90023FBF7E6FC02460B46DE
:104C000030463946FBF72AFB06460F46FBF78CFF7A
:104C100000228046002330463946FBF747FF48B163
:104C20004046FBF767FC32463B46FBF735FF08B9C9
:104C300008F1FF38B8F1160F59D8634B03EBC803DE
:104C4000D3E90023DDE90601FBF730FF002850D04F
:104C500008F1FF38002312932D1B6B1E089343BFEE
:104C60000023C5F1010708930027B8F1000F42DBCC
:104C7000089BCDF8348043440893002309930A9B92
:104C8000092B6CD8052BC4BF043B0A930A9BA3F1E4
:104C90000203CCBF00240124032B6CD801A252F8DC
:104CA00023F000BF574D00085B4D00081D4D000864
:104CB000074D0008179C2C4404F23243202BC1BF3F
:104CC000C3F1400308FA03F804F2124326FA03F38F
:104CD000D6BFC3F1200348EA030006FA03F0FBF74E
:104CE000F9FB0122A1F1F873013C14926DE7012355
:104CF000B1E71290B0E7C8F1000309930023A7EBD6
:104D000008070D93BBE701230B930C9B43440593CA
:104D10000133012B0493B8BF012306E001230B9359
:104D20000C9B002B2ADDCDE90433D9F81C000021AF
:104D3000042202F114059D4201F1010623D94160CC
:104D4000484600F0A1FD0090002841D11F4B0246CB
:104D500040F2AF11C7E60023E1E70023D4E70124C6
:104D60000023CDE90A344FF0FF33CDE904330022AC
:104D700012230C92D9E701230B93F4E70123CDE929
:104D800004331A46F5E752003146D2E7AFF300800C
:104D900061436F63A787D23FB3C8608B288AC63F41
:104DA000FB799F501344D33F9D700008B4700008F6
:104DB0000000F07F99700008907000086D70000886
:104DC0006C7000080000F83FD8710008F670000809
:104DD000D9F81C30009A1A60049B0E2B00F2A180B7
:104DE000002C00F09E80B8F1000F36DD9E4B08F0DD
:104DF0000F0203EBC20318F4807FD3E900AB4FEA44
:104E0000281516D0994BDDE90601D3E90823FBF7F5
:104E100005FDCDE9020105F00F050324934E75B998
:104E2000DDE9020152465B46FBF7F8FC82468B4601
:104E30002DE09DED067B02248DED027BEEE7E90778
:104E400008D550465946D6E90023FBF7BDFB01348F
:104E500082468B466D100836E1E700F0AD80C8F160
:104E60000005814B814E05F00F0203EBC203D3E92D
:104E70000023DDE90601FBF7A7FB2D1182468B46D7
:104E800000230224002D40F08C80002BCED1129BF9
:104E9000002B00F09580764B002250465946FBF7D8
:104EA00005FE002800F08C80049B002B00F0888019
:104EB000059B002B35DD08F1FF3302935046594620
:104EC0006C4B0022FBF780FB059E82468B4601342B
:104ED0002046FBF70FFB52465B46FBF775FB664B24
:104EE0000022FBF7BBF90446A1F15075CDE910454E
:104EF000002E69D1614B002250465946FBF7ACF9B0
:104F000022462B4682468B46FBF7EEFD002840F0FA
:104F10009482224605F1004350465946FBF7C6FDF0
:104F200020BB179B002BC0F26081B8F10E0F00F37D
:104F30005C814D4B03EBC803D3E900AB0C9B002B0A
:104F400080F2EE80049B002B00F3EA800ED14B4BE5
:104F5000002250465946FBF737FB02460B46DDE977
:104F60000601FBF7ADFD002800F06A8200252C4603
:104F70000C9B009EDB4302932746002429464846AB
:104F800000F0C0FC002F00F0C1802CB1BC4203D067
:104F90002146484600F0B6FC3946484600F0B2FCCF
:104FA000B4E0EA0705D5D6E90023FBF70DFB013491
:104FB00001236D10083665E7DDE906AB022466E7DC
:104FC000049ECDF8088083E7274B03EBC60353E923
:104FD00002010B9B002B55D002460B4600202849AE
:104FE000FBF71CFCDDE91023FBF736F9009BCDE94C
:104FF00010019D191E4659465046FBF795FD044683
:10500000FBF778FA02460B4650465946FBF724F95F
:105010003034DDE9102306F8014B82468B46FBF75E
:1050200045FD002872D152465B4611490020FBF72E
:1050300013F9DDE91023FBF739FD002840F0B680B5
:10504000AE423FF46EAFDDE910010A4B0022FBF7E0
:10505000BBFA084BCDE91001002250465946FBF738
:10506000B3FA82468B46C6E7D8710008B0710008D3
:105070000000F03F0000244000001C4000001440ED
:105080000000E03FDDE91023FBF79EFA009B009D46
:10509000CDE910013344159359465046FBF744FDC2
:1050A0000446FBF727FA30340B4602465946504671
:1050B000FBF7D2F805F8014B159B9D4282468B46C3
:1050C00027D1009B0022DDE910011E44B34BFBF702
:1050D000C5F802460B4650465946FBF705FD002829
:1050E00064D1DDE91023AD490020FBF7B5F8024695
:1050F0000B4650465946FBF7D9FC00283FF411AF48
:10510000334616F8012D302AFAD01E46DDF8088005
:105110003AE0A34B0022FBF757FA82468B46BBE7E7
:10512000009E52465B46DDE90601FBF777FBFBF785
:10513000FBFC0746FBF7DEF952465B46FBF744FAF9
:1051400002460B46DDE90601FBF786F807F1300C55
:10515000009C06F801CBA6EB040C049C64450246B7
:105160000B4633D1FBF77AF852465B4604460D46B0
:10517000FBF7BAFCC0B952465B4620462946FBF70E
:105180008BFC08B1FB070FD40199484600F0BAFB2D
:105190000023139A337008F101031360239B002B43
:1051A0003FF4DAAC1E60D7E4CDF8088033461E46E3
:1051B00013F8012D392A06D1009A9A42F7D1029AA2
:1051C00001320292302201321A709FE7744B0022A2
:1051D000FBF7FAF902460B46CDE90623002200232D
:1051E000FBF75AFC00289CD0CEE70B9A002A00F06F
:1051F000E3800A9A012A00F3C280149A002A00F080
:10520000BA8003F23343099D3E46089A01211A44AD
:1052100048461F44089200F029FC044656B1089BFA
:10522000002B07DDB342089AA8BF3346FF1AF61ACF
:10523000D31A0893099B0BB30B9B002B00F0C38080
:10524000002D00F0BD8021462A46484600F0CEFCE5
:10525000019A01460446484600F01EFC0199824628
:10526000484600F04FFB099B5B1B099300F0AE80A2
:10527000099A5146484600F0B9FC01900121484680
:1052800000F0F4FB0D9B0546002B00F0D7811A4679
:105290000146484600F0AAFC0A9B012B054600F394
:1052A0009D800E9B002B40F094800F9BC3F3130353
:1052B000002B40F08E800F9B23F000431B0D1B053D
:1052C000002B00F08980089B0133013708934FF0D1
:1052D000010A0D9B002B00F0B7812B6905EB8303BE
:1052E000186900F077FBC0F12000089B184410F00B
:1052F0001F007ED0C0F12003042B72DD089BC0F19B
:105300001C000344074406440893002F05DD01995F
:105310003A46484600F0C6FC0190089B002B05DD8C
:1053200029461A46484600F0BDFC0546129B002B54
:1053300061D00198294600F023FD00285BDA08F1CE
:10534000FF330293019900230A22484600F0FCFA39
:105350000B9B0190002B00F07981002321460A224B
:10536000484600F0F1FA059B002B044672DC0A9BCC
:10537000022B49DC6EE0169BC3F1360343E7049B26
:105380005D1E099BAB420DDB5D1B049B002BBFF632
:105390003BAF049BFE1A002337E700BF0000E03F4D
:1053A00000002440099B0D9A0995EB1A1A440D92AE
:1053B000049B3E46002528E7099D0B9C3E462DE7B1
:1053C000DDF804A054E7099A019953E7CDF804A049
:1053D00054E74FF0000A7CE79A467AE74FF0000A5C
:1053E0007BE792D0089A1C331A441F441E4408924B
:1053F0008BE70346F6E7049BCDF80880002B23DCFF
:1054000005930A9B022B21DD059B002B7FF4B0AD99
:1054100029460522484600F097FA014605460198BC
:1054200000F0AEFC00287FF7A3AD009E312306F804
:10543000013B029B013302939EE535462C46F4E77F
:10544000049DCDF80880F9E7049B05930B9B002B86
:1054500000F00081002E05DD21463246484600F06E
:1054600021FC0446BAF1000F5AD06168484600F0AA
:105470000BFA064628B9824B024640F2EF21FFF7AD
:1054800032BB22690232920004F10C010C3000F0B0
:10549000B3FF01223146484600F004FC0746009B5A
:1054A000009A03F1010B059B134406930E9B03F036
:1054B000010308930BF1FF33294601980493FFF78A
:1054C00072FA2146059000F1300A019800F058FC6C
:1054D0003A4680462946484600F06EFCC2680646B9
:1054E00002BB0146019800F04BFC0246314648469B
:1054F000099200F007FADDE9092342EA0301089B5B
:1055000019435E4610D1BAF1390F2BD0B8F1000F14
:1055100002DD059B03F1310A049B83F800A02DE511
:105520002746BCE70122E1E7B8F1000F06DB0A9B42
:1055300048EA0308089B58EA030820D1002AEBDD5B
:1055400001990122484600F0ADFB2946019000F088
:1055500017FC002803DCDFD11AF0010FDCD0BAF110
:10556000390FD6D1049A3923137033461E46013BB6
:1055700016F8012C392A52D001321A70FEE4002AA2
:1055800007DDBAF1390FEDD0049A0AF10103137067
:10559000F4E4069B0BF801AC5B452AD0019900238B
:1055A0000A22484600F0D0F9BC4201904FF00003B7
:1055B0004FF00A022146484606D100F0C5F90446DC
:1055C00007460BF1010B75E700F0BEF939460446BA
:1055D00000230A22484600F0B7F90746F1E7059B89
:1055E0005E1E002B009BD8BF00265A1C274616447F
:1055F000002401990122484600F054FB29460190FD
:1056000000F0BEFB0028B0DC02D11AF0010FACD1D3
:1056100033461E4613F8012D302AFAD0AEE4009A24
:105620009A42A3D1029B013302933123AFE7239B1C
:10563000002B7FF48CAA134BFFF7ABBA0A9B012B0C
:105640007FF72FAEDDF834A001204EE6059B002B3E
:105650007FF7D7AE009E01982946FFF7A4F900F125
:10566000300A009B06F801ABF21A059B9342B6DDA7
:10567000019900230A22484600F066F90190EAE702
:10568000F67000089070000838B50546002941D032
:1056900051F8043C0C1F002BB8BFE41800F0E8F8E8
:1056A0001D4A136833B9636014602846BDE838406A
:1056B00000F0E4B8A34208D9206821188B4201BF4A
:1056C00019685B6809182160EDE71A465B680BB141
:1056D000A342FAD911685018A0420BD120680144A6
:1056E000501883421160E0D118685B685360084429
:1056F0001060DAE702D90C232B60D6E72068211866
:105700008B4204BF19685B68636004BF091821609D
:105710005460CAE738BD00BF48040020024B014670
:10572000186800F025B800BF1800002070B50F4EB3
:105730000C463168054611B900F04EFE3060214636
:10574000284600F049FE431C03D14FF0FF342046A9
:1057500070BDC41C24F00304A042F8D0211A2846CE
:1057600000F03AFE0130F2D1EFE700BF4404002020
:105770002DE9F843CD1C25F0030508350C2D38BF65
:105780000C25002D064601DBA94204D90C23336009
:105790000020BDE8F883DFF8D48000F069F8D8F87D
:1057A00000301C4644BB29463046FFF7BFFF431C70
:1057B000044658D1D8F800402746002F43D1002C8A
:1057C0004BD023683946304604EB030900F004FE51
:1057D000814542D121686D1A29463046FFF7A6FF60
:1057E00001303AD023682B442360D8F800305A683F
:1057F00062BBC8F800700FE02268521B20D40B2A4D
:1058000017D96119A342256018BF5960636808BFA2
:10581000C8F8001062514B60304600F02FF804F1D8
:105820000B00231D20F00700C21A1CBF1B1AA35037
:10583000AFE76268A3420CBFC8F800205A60EBE7EC
:1058400023466468AEE73C467F68B6E71A465B6865
:10585000A342FBD100235360DEE70C2333603046C4
:1058600000F00CF894E70560D6E700BF480400207C
:105870000148FFF796B800BF400400200148FFF739
:1058800091B800BF4004002070B5C46905460E46BB
:1058900084B91020FFF742FF0446E86128B90246A8
:1058A000164B17486B2100F0B5FD0023C0E901330A
:1058B0000360C360E36853B921220421284600F045
:1058C000C7FDEB69E060DB680BB9002070BD53F8E1
:1058D000260030B1026843F826200023C0E90333D4
:1058E000F4E7012101FA06F4621D9200284600F057
:1058F000AFFD0028E9D0C0E90164EEE79D70000823
:105900000771000870B5C66905460C4676B91020C7
:10591000FFF704FF0246E86120B9094B09488F21CF
:1059200000F078FDC0E901660660C6603CB1EB6935
:105930006268DB6853F82210216043F8224070BD92
:105940009D700008077100082DE9F0410D690746B8
:105950000C461E4601F1140C0020DCF8003099B210
:1059600002FB01611E0C0B0C02FB063389B20130F5
:1059700001EB034185424CF8041B4FEA1346ECDC73
:105980000EB3A368AB4219DC616838460131FFF7FA
:105990007BFF804628B902460C4B0D48BA2100F027
:1059A00039FD2269023204F10C0192000C3000F042
:1059B00023FD21463846FFF7A5FF444604EB850347
:1059C00001355E6125612046BDE8F081F670000872
:1059D00007710008B0F5803F034636BF030400207E
:1059E0001020B3F1807F3CBF1B020830B3F1805F11
:1059F0003CBF1B010430B3F1804F3CBF9B00023021
:105A0000002B05DB13F0804F00F1010008BF2020C0
:105A100070470368024613F007000BD0D90721D462
:105A2000980749BF5B089B08012013605CBF1360A7
:105A30000220704799B209B91B0C1020D9B209B9DC
:105A400008301B0A190704BF1B090430990704BF5B
:105A50009B080230D90703D45B0800F1010003D092
:105A600013607047002070472020704710B50C4627
:105A70000121FFF709FF024628B9054B054840F20E
:105A8000451100F0C7FC01234461036110BD00BF54
:105A9000F6700008077100082DE9F04FD1F810905A
:105AA000D2F810A0D14585B08846144604DB534691
:105AB0000C46CA4690469946A36861680AEB0906F7
:105AC000B342B8BF0131FFF7DFFE30B90246454BA4
:105AD00045484FF4B17100F09DFC00F1140505EB51
